{
  "contractName": "Verify",
  "abi": [
    {
      "inputs": [],
      "payable": false,
      "stateMutability": "nonpayable",
      "type": "constructor"
    },
    {
      "constant": true,
      "inputs": [
        {
          "internalType": "uint256",
          "name": "",
          "type": "uint256"
        }
      ],
      "name": "caseAccounts",
      "outputs": [
        {
          "internalType": "uint256",
          "name": "",
          "type": "uint256"
        }
      ],
      "payable": false,
      "stateMutability": "view",
      "type": "function"
    },
    {
      "constant": false,
      "inputs": [
        {
          "internalType": "address",
          "name": "_address",
          "type": "address"
        },
        {
          "internalType": "uint256",
          "name": "_id",
          "type": "uint256"
        },
        {
          "internalType": "string",
          "name": "_location",
          "type": "string"
        },
        {
          "internalType": "string",
          "name": "_hash",
          "type": "string"
        }
      ],
      "name": "setCase",
      "outputs": [],
      "payable": false,
      "stateMutability": "nonpayable",
      "type": "function"
    },
    {
      "constant": true,
      "inputs": [],
      "name": "getAllCases",
      "outputs": [
        {
          "internalType": "uint256[]",
          "name": "",
          "type": "uint256[]"
        }
      ],
      "payable": false,
      "stateMutability": "view",
      "type": "function"
    },
    {
      "constant": true,
      "inputs": [
        {
          "internalType": "uint256",
          "name": "_id",
          "type": "uint256"
        }
      ],
      "name": "getCase",
      "outputs": [
        {
          "internalType": "uint256",
          "name": "",
          "type": "uint256"
        },
        {
          "internalType": "string",
          "name": "",
          "type": "string"
        },
        {
          "internalType": "string",
          "name": "",
          "type": "string"
        }
      ],
      "payable": false,
      "stateMutability": "view",
      "type": "function"
    }
  ],
  "bytecode": "0x608060405234801561001057600080fd5b5061072e806100206000396000f3fe608060405234801561001057600080fd5b506004361061004c5760003560e01c8063a91a108014610051578063b9c1d46d1461016b578063cf3a6fda146101ad578063fb40c22a14610329575b600080fd5b61007d6004803603602081101561006757600080fd5b8101908080359060200190929190505050610388565b604051808481526020018060200180602001838103835285818151815260200191508051906020019080838360005b838110156100c75780820151818401526020810190506100ac565b50505050905090810190601f1680156100f45780820380516001836020036101000a031916815260200191505b50838103825284818151815260200191508051906020019080838360005b8381101561012d578082015181840152602081019050610112565b50505050905090810190601f16801561015a5780820380516001836020036101000a031916815260200191505b509550505050505060405180910390f35b6101976004803603602081101561018157600080fd5b8101908080359060200190929190505050610512565b6040518082815260200191505060405180910390f35b610327600480360360808110156101c357600080fd5b81019080803573ffffffffffffffffffffffffffffffffffffffff169060200190929190803590602001909291908035906020019064010000000081111561020a57600080fd5b82018360208201111561021c57600080fd5b8035906020019184600183028401116401000000008311171561023e57600080fd5b91908080601f016020809104026020016040519081016040528093929190818152602001838380828437600081840152601f19601f820116905080830192505050505050509192919290803590602001906401000000008111156102a157600080fd5b8201836020820111156102b357600080fd5b803590602001918460018302840111640100000000831117156102d557600080fd5b91908080601f016020809104026020016040519081016040528093929190818152602001838380828437600081840152601f19601f820116905080830192505050505050509192919290505050610533565b005b6103316105fc565b6040518080602001828103825283818151815260200191508051906020019060200280838360005b83811015610374578082015181840152602081019050610359565b505050509050019250505060405180910390f35b600060608060008085815260200190815260200160002060000154600080868152602001908152602001600020600101600080878152602001908152602001600020600201818054600181600116156101000203166002900480601f0160208091040260200160405190810160405280929190818152602001828054600181600116156101000203166002900480156104625780601f1061043757610100808354040283529160200191610462565b820191906000526020600020905b81548152906001019060200180831161044557829003601f168201915b50505050509150808054600181600116156101000203166002900480601f0160208091040260200160405190810160405280929190818152602001828054600181600116156101000203166002900480156104fe5780601f106104d3576101008083540402835291602001916104fe565b820191906000526020600020905b8154815290600101906020018083116104e157829003601f168201915b505050505090509250925092509193909250565b6001818154811061051f57fe5b906000526020600020016000915090505481565b600080600085815260200190815260200160002090508381600001819055508281600101908051906020019061056a929190610654565b5081816002019080519060200190610583929190610654565b50848160030160006101000a81548173ffffffffffffffffffffffffffffffffffffffff021916908373ffffffffffffffffffffffffffffffffffffffff160217905550600180859080600181540180825580915050906001820390600052602060002001600090919290919091505550505050505050565b6060600180548060200260200160405190810160405280929190818152602001828054801561064a57602002820191906000526020600020905b815481526020019060010190808311610636575b5050505050905090565b828054600181600116156101000203166002900490600052602060002090601f016020900481019282601f1061069557805160ff19168380011785556106c3565b828001600101855582156106c3579182015b828111156106c25782518255916020019190600101906106a7565b5b5090506106d091906106d4565b5090565b6106f691905b808211156106f25760008160009055506001016106da565b5090565b9056fea265627a7a72315820d9a7b0a4727e89ea2e2e3ad92783c514ddbfa98ebcd5e568c65f90a6e452512064736f6c63430005100032",
  "source": "pragma solidity  0.5.16;\r\n\r\ncontract Verify {\r\n    \r\n    struct CaseDetails {\r\n        uint caseID;\r\n        string location;\r\n        string ipfsHash;\r\n        address accnt;\r\n        \r\n    }\r\n    \r\n    //address public owner ; \r\n    \r\n    constructor() public {\r\n        //owner = msg.sender;\r\n    }\r\n    \r\n    mapping (uint => CaseDetails) cases;\r\n    uint[] public caseAccounts;\r\n    \r\n    function setCase ( address _address,  uint _id, string memory _location ,string memory _hash) public{\r\n        \r\n        CaseDetails  storage Case = cases[_id];\r\n        Case.caseID = _id;\r\n        Case.location = _location;\r\n        Case.ipfsHash = _hash;\r\n        Case.accnt =_address;\r\n        caseAccounts.push(_id) -1 ;\r\n        \r\n        \r\n        \r\n    \r\n    }\r\n    \r\n     function getAllCases() view public returns(uint[] memory) {\r\n        return caseAccounts;\r\n    }\r\n    \r\n    function getCase(uint _id) view public returns (uint, string memory, string memory) {\r\n        return (cases[_id].caseID, cases[_id].location, cases[_id].ipfsHash);\r\n    }\r\n}\r\n\r\n",
  "sourcePath": "C:\\Users\\shoji\\Downloads\\verifyContract\\contracts\\Verify.sol",
  "compiler": {
    "name": "solc",
    "version": "0.5.16+commit.9c3226ce.Emscripten.clang"
  },
  "schemaVersion": "3.1.0",
  "updatedAt": "2020-05-19T18:18:43.328Z",
  "networkType": "ethereum",
  "devdoc": {
    "methods": {}
  },
  "userdoc": {
    "methods": {}
  }
}